:0409CA00020800031C
:100800001209B61209C3E4F508F5095389F04389C2
:1008100001D2A9D2AFE5087049E50914601414604B
:100820001714601C14602514602E24057034C2A1B6
:100830008002D2A1C2A28004D2A1D2A2C2A3800609
:10084000D2A1D2A2D2A3C2A4C2A58016D2A1D2A202
:10085000D2A3D2A4C2A5800AD2A1D2A2D2A3D2A4EA
:10086000D2A5209028C3E5099405E508648094800A
:10087000501B0509E50970020508E4F50AF50B05AA
:100880000BE50B7002050A6432450A70F22091856F
:10089000D3E5099400E508648094805003020815AC
:1008A000E509150970021508E4F50AF50BC3E50B17
:1008B0009432E50A648094804003020815050BE534
:0708C0000B70EA050A80E657
:0D09B6007580FF7590FF75A0FF75B0FF22E2
:0709C300D288D2A8D2AF22B6
:030003000209539C
:10095300C0E0C0F0C0D075D000C000C004C005C066
:1009630006C007C28CAE08AF097C077D6C1209A4D0
:10097300EEFFC374FF9FF58CE50975F06CA4FFC30C
:1009830074FF9FF58AD28CD2A0308DFDC28DC2A098
:10099300D007D006D005D004D000D0D0D0F0D0E01E
:0109A3003221
:030000000208C72C
:0C08C700787FE4F6D8FD75810B02090E65
:1009A400EF8DF0A4A8F0CF8CF0A428CE8DF0A42E67
:0209B400FE2221
:1008D300020800E493A3F8E493A34003F68001F233
:1008E30008DFF48029E493A3F85407240CC8C33326
:1008F300C4540F4420C8834004F456800146F6DFF5
:10090300E4800B01020408102040809009CAE47EB1
:10091300019360BCA3FF543F30E509541FFEE493E9
:10092300A360010ECF54C025E060A840B8E493A3B0
:10093300FAE493A3F8E493A3C8C582C8CAC583CADB
:10094300F0A3C8C582C8CAC583CADFE9DEE780BE93
:0109CE000028
:00000001FF
