:07099B00010A000208000040
:10088C0012098312099030901FD3E5099400E508F2
:10089C00648094804012D2A0AE08AF097C077D6CB6
:1008AC001209711209058002C2A0E50870D8E50989
:1008BC0014601414601714601C14602514602E242A
:1008CC000570C3C2A18002D2A1C2A28004D2A1D25F
:1008DC00A2C2A38006D2A1D2A2D2A3C2A4C2A580D6
:1008EC00A5D2A1D2A2D2A3D2A4C2A58099D2A1D2C0
:0908FC00A2D2A3D2A4D2A5808DE2
:0D0983007580FF7590FFE4F5A075B0FF22B0
:10090500AD07AC065389F0438901C374FF9CF58C90
:10091500C374FF9DF58AD2A9D2AFE4F50AD28CE55E
:060925000A60FCC28C22F6
:03000B000209A344
:0609A300750A01C28D324D
:0B099000D288D28AD2A8D2AAD2AF220D
:0300030002094FA0
:10094F00C0E0C0D00509E50970020508C39405E5AC
:10095F0008648094804006750800750905D0D0D0D2
:02096F00E03274
:0300130002092BB4
:10092B00C0E0C0D0E509150970021508D3E509949C
:10093B0000E508648094805006750800750900D0A6
:04094B00D0D0E032F6
:03000000020800F3
:0C080000787FE4F6D8FD75810A020847F5
:10097100EF8DF0A4A8F0CF8CF0A428CE8DF0A42E9A
:02098100FE2254
:10080C0002088CE493A3F8E493A34003F68001F26E
:10081C0008DFF48029E493A3F85407240CC8C333ED
:10082C00C4540F4420C8834004F456800146F6DFBC
:10083C00E4800B010204081020408090099BE47EA8
:10084C00019360BCA3FF543F30E509541FFEE493B1
:10085C00A360010ECF54C025E060A840B8E493A378
:10086C00FAE493A3F8E493A3C8C582C8CAC583CAA3
:10087C00F0A3C8C582C8CAC583CADFE9DEE780BE5B
:0109A2000054
:00000001FF
